:020000040800F2
:100000000000022089010008CD01000829E800084D
:10001000CD010008CD010008CD010008000000005E
:10002000000000000000000000000000CD010008FA
:10003000CD01000800000000CD010008D910010822
:10004000CD010008CD010008CD010008CD01000858
:10005000CD010008CD010008CD010008CD01000848
:10006000CD010008CD010008CD010008CD01000838
:100070009D1E0108CD010008191E0108CD010008D0
:10008000CD010008CD010008CD010008CD01000818
:10009000CD010008CD010008CD01000885F500085C
:1000A000CD010008CD010008CD010008CD010008F8
:1000B000690D01089DF900080DE60008CD01000852
:1000C000CD010008CD010008CD010008CD010008D8
:1000D000CD01000805200108CD01000841200108DC
:1000E000CD010008CD010008CD010008CD010008B8
:1000F000CD010008CD010008CD010008CD010008A8
:10010000CD010008CD010008CD010008CD01000897
:100110007D200108B9200108CD010008CD010008AB
:10012000CD010008CD010008511F0108CD010008D4
:10013000CD010008CD010008CD010008CD01000867
:10014000CD010008CD010008CD010008CD01000857
:10015000CD010008CD010008951D0108CD01000862
:10016000CD010008CD010008CD010008CD01000837
:10017000CD010008CD010008CD010008CD01000827
:08018000CD010008CD010008CB
:10018800002103E00A4B5B584350043109480A4BED
:1001980042189A42F6D3094A02E0002342F8043B87
:1001A800074B9A42F9D30CF045FD0EF07DFA7047E3
:1001B800185A010800000020AC050020B0050020F6
:1001C800D00E0020FEE7000008B540F2AC50074B07
:1001D800C2F200001B1A062B00D808BD40F200032B
:1001E800C0F20003002BF8D09847F6E7AF050020CF
:1001F80008B540F2AC5040F2AC53C2F20000C2F273
:1002080000031B1A9B1003EBD373591000D108BDD0
:1002180040F20002C0F20002002AF8D09047F6E748
:1002280010B540F2B054C2F20004237873B9FFF756
:10023800CBFF40F20003C0F200032BB144F69C70E0
:10024800C0F60100AFF300800123237010BD00BF8A
:1002580008B540F20003C0F200034BB144F69C70AD
:1002680040F2B451C0F60100C2F20001AFF30080C1
:1002780040F2AC50C2F2000003682BB140F2000318
:10028800C0F2000303B19847BDE80840B0E700BFDB
:1002980070B542F2FB16C3F6E97621F00044B44289
:1002A80086B002460B461CDD4FF6FF75C7F6EF75A4
:1002B800AC4203DD0AF0B2FB06B070BD02AA00F042
:1002C80067FC00F00304DDE90201012C16D0022CC2
:1002D8000DD0DCB10124DDE90423009401F05CFCBD
:1002E800EAE70022002300F043FF06B070BDDDE915
:1002F800042300F03DFF01F10041DDE7DDE90423BF
:10030800009401F049FC01F10041D5E7DDE904233F
:1003180000F02EFFD0E700BF70B542F2FB16C3F61F
:10032800E97621F00044B44286B002460B461CDD53
:100338004FF6FF75C7F6EF75AC4203DD0AF06EFBAA
:1003480006B070BD02AA00F023FC00F003000128EB
:100358001ED0022811D010B3DDE90201DDE9042323
:1003680000F006FF01F10041EAE700240022002323
:10037800009401F011FC06B070BDDDE90201012412
:10038800DDE90423009401F007FC01F10041D7E7FF
:10039800DDE90201DDE9042300F0EAFED0E70124EB
:1003A800DDE90201DDE90423009401F0F5FBC7E76C
:1003B8002DE9F0418AB004460D4600F0A9F840F254
:1003C8000008C2F2000898F90030013306460F46CB
:1003D80004D02046294601F0D7FE20B930463946D8
:1003E8000AB0BDE8F0812046294601F039FE002315
:1003F8000022C3F6F0730AF055FF0028EED044F649
:10040800103044F62873C0F60100C0F6010301223B
:10041800CDE904458DE80C000023CDE90245089399
:1004280001F0DCFE98F90030022BCDE906010AD074
:10043800684601F0D1FE30B1089B4BB9DDE90601F1
:100448000AB0BDE8F08101F0A9FF21230360F3E7BA
:1004580001F0A4FF089B0360F0E700BF00F098BA22
:100468002DE9F0478AB004460D4600F0C1FD40F280
:10047800000AC2F2000A9AF90030013306460F4614
:100488000FD02046294601F07FFE50B14FF00008FA
:100498004FF000092046294642464B460AF0E4FE42
:1004A80020B9304639460AB0BDE8F0879AF80060AE
:1004B80044F63073C0F60103012201930023CDE90D
:1004C8000445CDE902450092089366B9CDE906894D
:1004D800684601F081FE80B1089B9BB9DDE9060101
:1004E8000AB0BDE8F0874046494642464B460AF006
:1004F80073FD022ECDE90601EAD101F04FFF212359
:100508000360E9E701F04AFF089B0360E6E700BFE4
:100518004FF6FF732DE9F04FC3F6EF7321F0004853
:1005280087B09845824689460F4616DD08F140484F
:1005380008F5801858EA000800F00F8102460B46BB
:100548000AF06CFA02460B460AF046FD82468946D6
:100558005046494607B0BDE8F08F4FF6FF73C3F623
:10056800DF73984510DCB8F1795F80F26D819AA34A
:10057800D3E900230AF054FA00230022C3F6F073EB
:100588000AF090FE0028E3D15046494601F068FD84
:100598000B4600210246C3F6F07100200AF03EFA2D
:1005A80000230022C3F6E0730AF0ECFB8CA3D3E926
:1005B800002304460D460AF0E5FB8BA3D3E900238C
:1005C8000AF02EFA22462B460AF0DCFB88A3D3E970
:1005D80000230AF023FA22462B460AF0D3FB86A30F
:1005E800D3E900230AF01CFA22462B460AF0CAFB7C
:1005F80083A3D3E900230AF011FA22462B460AF016
:10060800C1FB81A3D3E900230AF00AFA22462B464C
:100618000AF0B8FB7EA3D3E90023CDE90201204606
:1006280029460AF0AFFB7CA3D3E900230AF0F6F9C8
:1006380022462B460AF0A6FB79A3D3E900230AF049
:10064800EFF922462B460AF09DFB77A3D3E9002356
:100658000AF0E4F922462B460AF094FB0023C3F67D
:10066800F07300220AF0DCF9CDE90401204629469E
:1006780000F0BEFC43F23233C3F6EF739845CDE980
:10068800000100F38580DDE900AB52465B460AF0C5
:10069800C7F9DDE904234FF0000A80468946DDE901
:1006A80002010AF099FC02460B46404649460AF008
:1006B80069FB52465B4689468046594650460AF0D1
:1006C80061FB02460B46204629460AF0A7F9524626
:1006D8005B4604460D46DDE900010AF0A1F9024631
:1006E8000B46204629460AF077FC02460B460AF0DC
:1006F80097F902460B464EA1D1E900010AF08EF99E
:1007080002460B46404649460AF088F952465B467F
:1007180004460D46504659460AF082F902460B46F1
:1007280045A1D1E900010AF079F902460B462046B5
:1007380029460AF073F902460B463FA1D1E90001A8
:100748000AF06CF982468946002F5046D8BF09F155
:100758000049494607B0BDE8F08F39A3D3E9002323
:100768000AF010FB32A3D3E9002304460D46504695
:1007780049460AF007FB02460B46204629460AF07E
:100788004FF9824689465046494607B0BDE8F08F82
:10079800DDE90423DDE902010AF01EFC02460B46EE
:1007A800DDE900010AF0EEFADDE900230AF038F984
:1007B80002460B460AF034F91DA3D3E900230AF0D8
:1007C8002DF902460B461EA1D1E900010AF026F9CF
:1007D80082468946B8E700BF9C7500883CE4377EAE
:1007E80009F7FD0DE13D023F88B20175E0EF493F91
:1007F8003B8F68B52882A43F5544880E55C1C93F30
:100808007D6FEB0312D6D43F555555555555C53F09
:1008180082922EB1C5B8B33F59018D1B6C06E63FD5
:10082800C88A599CE52A00404B2D8A1C273A034068
:10083800075C143326A6913C182D4454FB21E93F4C
:10084800182D4454FB21F93F02460B460AF09AFA48
:100858003BA3D3E9002304460D460AF093FA3AA3D2
:10086800D3E900230AF0DCF822462B460AF08AFA7C
:1008780037A3D3E900230AF0D1F822462B460AF021
:1008880081FA35A3D3E900230AF0CAF822462B4699
:100898000AF078FA32A3D3E900230AF0BFF8224617
:1008A8002B460AF06FFA30A3D3E900230AF0B8F810
:1008B80022462B460AF066FA2DA3D3E90023064602
:1008C8000F46204629460AF05DFA2BA3D3E90023F8
:1008D8000AF0A4F822462B460AF054FA28A3D3E9D2
:1008E80000230AF09DF822462B460AF04BFA26A36D
:1008F800D3E900230AF092F822462B460AF042FA7E
:1009080000230022C3F6F0730AF08AF802460B4669
:10091800304639460AF060FB02460B4650464946C7
:100928000AF030FA52464B460AF07AF8824689466F
:100938005046494607B0BDE8F08F00BFAFF30080CE
:1009480009F7FD0DE13D023F88B20175E0EF493F2F
:100958003B8F68B52882A43F5544880E55C1C93FCE
:100968007D6FEB0312D6D43F555555555555C53FA8
:1009780082922EB1C5B8B33F59018D1B6C06E63F74
:10098800C88A599CE52A00404B2D8A1C273A034007
:100998002DE9F047C2F1000949EA02094FF0000CBD
:1009A80023F00048C7F6F07C48EAD97982B0E145DF
:1009B80014461D46CDE900010F464ED8C0F1000A85
:1009C80021F000494AEA000A49EADA7AE24544D8BD
:1009D80003F1404C0CF5801C5CEA020C53D04FEA42
:1009E800A37A0AF0020A4AEAD17A59EA00013DD00C
:1009F80058EA040141D00021C7F6F071884556D065
:100A08000021C7F6F071894537D0C8EB09084FEACD
:100A18002858B8F13C0F46DC18F13C0FACBF4FF03A
:100A280000084FF0010818EAD5781CBF0020002103
:100A380069D0BAF1010F63D0BAF1020F53D0BAF1FD
:100A4800000F10D040A3D3E9002309F0E7FF40A32B
:100A5800D3E9002309F0E2FF05E010461946DDE975
:100A6800002309F0DDFF02B0BDE8F087BAF1030FFB
:100A7800BED8DFE80AF00D0D1410002F2FDB36A1C9
:100A8800D1E90001EFE702B0BDE8F04701F038B95D
:100A9800DDE90001E7E732A1D1E90001E3E72CA194
:100AA800D1E90001DFE72CA1D1E90001C1E7C14587
:100AB80032D0BAF1030FA3D801A151F82AF000BF30
:100AC800E10A0008D90A0008A70A00089F0A0008D6
:100AD80000204FF00041C6E700200021C3E722A113
:100AE800D1E90001BFE718A3D3E9002309F096FF75
:100AF80002460B4616A1D1E9000109F08FFFB2E7C3
:100B080001F10041AFE7DDE900010AF065FA01F003
:100B1800A7FA01F0F5F88CE7BAF1030FADD8DFE8D2
:100B28000AF006020E0A12A1D1E900019BE712A100
:100B3800D1E9000197E712A1D1E9000193E712A1D9
:100B4800D1E900018FE700BF075C143326A6A13C5A
:100B5800182D4454FB210940182D4454FB21F93F1A
:100B6800182D4454FB2109C0182D4454FB21F9BF0A
:100B7800182D4454FB21E9BF182D4454FB21E93FAB
:100B8800D221337F7CD902C0D221337F7CD9024065
:100B980042F2FB132DE9F04FC3F6E97321F0004749
:100BA80091B09F4204460D468B46904640F3A18083
:100BB8004DF67B13C4F202039F4229DC002998A357
:100BC800D3E9002340F3BA8109F028FF42F2FB136E
:100BD800C3F6F9739F4282468B4600F09F8092A32A
:100BE800D3E90023012609F019FFC8E900010246EC
:100BF8000B465046594609F011FF8BA3D3E9002351
:100C080009F00CFFC8E90201304611B0BDE8F08FC9
:100C180042F2FB13C4F239139F4240F39C804FF613
:100C2800FF73C7F6EF739F426EDC4FEA27590446FD
:100C3800A9F21649A7EB095529460AF03DFB0AF027
:100C48003BF806460F4602460B4620462946CDE9A4
:100C58000A6709F0E3FE00230022C4F270130AF0C9
:100C680091F80F4606460AF027FB0AF025F80246D7
:100C78000B4604460D4630463946CDE90C4509F089
:100C8800CDFE00230022C4F270130AF07BF8002383
:100C98000022CDE90E010AF0DDFA032348B1002352
:100CA8002046294600220AF0D5FA002814BF01235D
:100CB800022365494A4602240AA800940191414644
:100CC80000F082FBBBF1000FBDBFD8F80420D8F8B4
:100CD8000C3046420646BCBF02F1004203F1004315
:100CE8003046BCBFC8F80420C8F80C3011B0BDE8C5
:100CF800F08F0026C2E9004500230022C8E902233C
:100D0800304611B0BDE8F08F02460B4609F086FE6A
:100D18000026C8E90201C8E90001F1E744A3D3E9C4
:100D2800002309F07BFE44A3D3E9002306460F46BF
:100D380009F074FE02460B46C8E900013046394600
:100D4800012609F06BFE3CA3D3E9002309F066FEF7
:100D5800C8E90201D4E701F083F939A3D3E90023F4
:100D680004460D460AF00EF800230022C3F6E0738D
:100D780009F056FE0AF0A0FA064609F09DFF28A3DE
:100D8800D3E90023CDE9060109F0FCFF02460B4632
:100D98002046294609F042FE23A3D3E90023CDE9E2
:100DA8000201DDE9060109F0EDFF1F2ECDE904017E
:100DB800DDE902014ADC44F2B863721EC0F60103A1
:100DC80053F82230BB4241D0DDE9042309F026FE66
:100DD80005460C4602460B46C8E900232A46234628
:100DE800DDE9020109F01AFEDDE9042309F016FE27
:100DF800BBF1000F02460B46C8E9022380DA04F172
:100E0800004401F10041C8F804407642C8F80C10CB
:100E1800C8F80050C8F8080072E700BFAFF30080B8
:100E280000004054FB21F93F3163621A61B4D03DA0
:100E38000000601A61B4D03D7370032E8A19A33B79
:100E480083C8C96D305FE43F38470108DDE90423F2
:100E58003F1509F0E3FD0C46C1F30A51791A024621
:100E6800102923460546C8E90023B7DD56A3D3E970
:100E78000023DDE9060109F085FF04460D462246F8
:100E88002B46DDE9020109F0C9FDCDE90801DDE9DC
:100E98000823DDE9020109F0C1FD22462B4609F0CD
:100EA800BDFD4BA3D3E9002304460D46DDE9060149
:100EB80009F068FF22462B4609F0B0FDCDE9040190
:100EC800DDE90423DDE9080109F0A8FD0C46C1F3BA
:100ED8000A517F1A0546312F2A462346C8E90023BE
:100EE8006BDD3DA3D3E90023DDE9060109F04AFFE4
:100EF80004460D4622462B46DDE9080109F08EFD21
:100F0800CDE90201DDE90223DDE9080109F086FDEA
:100F180022462B4609F082FD31A3D3E9002304467B
:100F28000D46DDE9060109F02DFF22462B4609F0A2
:100F380075FDCDE90401DDE9020145E709F070FD21
:100F480042F2FB13C3F6F9739F4282468B4616D0D2
:100F580025A3D3E900234FF0FF3609F061FD0246CF
:100F68000B46C8E900015046594609F057FD1EA333
:100F7800D3E9002309F054FDC8E90201C0E612A331
:100F8800D3E9002309F04CFD11A3D3E90023064659
:100F98000F4609F045FD02460B46C8E900013046F8
:100FA80039464FF0FF3609F039FD09A3D3E900238C
:100FB80009F036FDC8E90201A2E6DDE90823CDE91A
:100FC80002230BE7AFF300800000601A61B4D03D44
:100FD8007370032E8A19A33B0000002E8A19A33BC5
:100FE800C14920259A837B393163621A61B4D03DA7
:100FF80021F0004C02462DE9F8434FEA1C5C4FF003
:1010080000080646C7F6F0784FEA0C5CC4450F4660
:101018000B4600F09080002971DD0F157AD0A7F2F9
:10102800FF37C3F31303F90743F4801342BFD10F0B
:10103800520001EB43034FF0000CD10F7F1001EB7E
:1010480043035200604616244FF400114518D60F8A
:101058009D424FEA4202DEBFC5EB030368188C4489
:10106800013C06EB43034FEA5101EFD12026A0468D
:101078004FF0004112E081461B1A954288BF03F1E8
:10108800FF33521B0C444846013E4FEAD2754FEAE3
:10109800510105EB43034FEA420215D0984201EB98
:1010A800080503DB954298BF8342EDD105F000495E
:1010B80005EB0108B9F1004FDDD1B8F1000FA8BF69
:1010C80000F10109D8DAD6E7134307D0631C08BF3B
:1010D8000CF1010C03D004F001031C4466084FEA2C
:1010E8006C031CF0010F03F17F5318BF46F0004654
:1010F80003F50013304603EB0751BDE8F88321F0F0
:101108000043034321D031BB0F46D30A153F520594
:10111800002BFAD013F4801119D15B000131D802E9
:10112800FBD5C1F10104C1F1200022FA00F02744E7
:1011380003438A4073E702460B4609F023FE324612
:101148003B4609F06DFCBDE8F883BDE8F883202034
:1011580001240021E9E702460B4609F05FFC02463C
:101168000B4609F039FFBDE8F88300BF0000000016
:101178002DE9F04F21F00049B9F1795F85B00646B5
:101188000F4692469B466FDA0AF096F8002800F060
:10119800FC8032463B463046394609F0F3FD7EA3D3
:1011A800D3E9002304460D4609F0ECFD7CA3D3E9FE
:1011B800002309F035FC22462B4609F0E3FD7AA30B
:1011C800D3E9002309F02AFC22462B4609F0DAFD70
:1011D80077A3D3E9002309F023FC22462B4609F024
:1011E800D1FD75A3D3E9002309F018FC22462B464C
:1011F80009F0C8FD72A3D3E9002309F011FC2246C7
:101208002B4609F0BFFDCDE9000100232046294601
:101218000022C3F6E07309F0B5FDDDE9002380463E
:1012280089462046294609F0ADFD52465B460446EC
:101238000D463046394609F0A5FD02460B462046C4
:10124800294609F0EBFB02460B464046494609F0A1
:10125800E5FB0B4600210246C3F6F071002009F0B9
:10126800DDFB05B0BDE8F08F02460B4609F08AFDAC
:1012780049A3D3E9002304460D4609F083FD48A39A
:10128800D3E9002309F0CCFB22462B4609F07AFD6E
:1012980045A3D3E9002309F0C1FB22462B4609F0F8
:1012A80071FD43A3D3E9002309F0BAFB22462B467C
:1012B80009F068FD40A3D3E9002309F0AFFB2246FB
:1012C8002B4609F05FFD3EA3D3E9002309F0A8FBF4
:1012D8002B46224609F056FD43F23233C3F6D37348
:1012E8009945CDE9000190DD00230022C3F6E9739A
:1012F80099454FF000033DDC0021A9F500130022B9
:101308000020C3F6F0719046994609F087FBCDE9B5
:1013180002010023204629460022C3F6E07309F0A3
:1013280031FD42464B4609F079FBDDE90023804652
:1013380089462046294609F025FD52465B46044663
:101348000D463046394609F01DFD02460B4620463B
:10135800294609F063FB02460B464046494609F018
:101368005DFB02460B46DDE9020109F057FB05B0BB
:10137800BDE8F08F4FF00009C3F6E7734FF000089F
:10138800CDE90223C3F6D279C3E700210020C3F6D2
:10139800F07105B0BDE8F08FD43888BEE9FAA8BD71
:1013A800C4B1B4BD9EEE213EAD529C804F7E923EAC
:1013B8009015CB19A001FA3E7751C1166CC1563F62
:1013C8004C5555555555A53F2DE9F04F4AF6AB26D6
:1013D800D51EC2F6AA26ADF51D7D44F6400486FB4F
:1013E80005765F1E0497C0F60104A69FED1799467F
:1013F80007900B9154F82740C5EBA60525EAE5753B
:101408000E950C94EB43049C03EB43032E1B0C9D9D
:1014180002EBC3030A93641917D4A79F34440DF150
:101428008808013407EB8605002709E0E85909F028
:1014380043FC0136E8E90201A64207F1040704D09B
:10144800002EF3DA00200021F3E70C9C002C2DDBA2
:101458000C9C24AF07EBC90A0DF5E47874AD05EBD5
:10146800C40BCDF80CB0049C002CC0F2A281079DDF
:10147800574600240026A5F1080B002577E902232A
:101488000136FBE9020109F07DFC02460B462046C5
:10149800294609F0C5FA4E4504460D46EED1E8E95D
:1014A80002450AF1080A039DA845DCD10C9D10AC41
:1014B8000294039504EB85040F94039F9CABFF00F3
:1014C80006973B44039F002F53E9284532DD069FCA
:1014D8000DF5E87A0DF13C0B0DF13C08BA44039F79
:1014E8000BEB870B00230022C3F6706320462946C6
:1014F80009F048FC09F0E0FE09F0DEFB00230022B9
:10150800C4F2701306460F4609F03CFC02460B462F
:101518002046294609F082FA09F0CEFE32463B46BB
:1015280048F8040F7AE9020109F07AFAD845044626
:101538000D46D7D1204629460A9A00F055FE0022CA
:101548004FF07F5304460D4609F01CFC00F08CFD5B
:1015580000230022C4F2200309F014FC02460B46C3
:101568002046294609F05AFA04460D4609F0A4FE19
:10157800824609F0A1FB02460B462046294609F09F
:101588004DFA0A9C002C06460F4640F3ED80039D59
:10159800C4F11801C4F1170010AC6A1E10AD54F85C
:1015A800223043FA01F4A24404FA01F15B1A45F827
:1015B800223043FA00F5002D34DD039C0AF1010ABC
:1015C800002C40F3F48010AB03EB8401002407E007
:1015D80022B10124C2F1807243F8042C8B420DD051
:1015E80053F8042B002CF3D08B42C2F1FF1202F502
:1015F8007F424FF0010443F8042CF1D10A980028E7
:101608000DDD012800F0B880022808D1039910A840
:101618004B1E50F82320C2F3150240F82320022D58
:1016280000F08580304639460022002309F012FE7A
:10163800002800F0C180039C04F1FF380C9C44454D
:101648000EDC039F10A8002200EB87030F9853F8C5
:10165800041D834242EA0102F9D1002A40F0638264
:101668000C9C10AD621E55F82230002B40F073829E
:1016780005EB8202012352F8041D01330029FAD038
:10168800039F039C1F440D97631CBB4249DC049DC8
:1016980021460E9F22462B4449440D9D03F1FF3BF2
:1016A8003A4424AF2B1B4FF0000807EBC104A79D59
:1016B800099407EBCB0B069C74AF05EB8202DB00A9
:1016C8002744039208930697039D08F1080855F8E4
:1016D800040F039509F0F0FA049F002FEBE90201CB
:1016E80022DB079C0025099F0026A4F1080A002494
:1016F800474477E902230136FAE9020109F042FB7F
:1017080002460B462046294609F08AF94E4504460A
:101718000D46EED1069FE7E90245089C0697A045CD
:10172800D2D10D9D0395C8E600240025F2E70021DB
:1017380032463B460020C3F6F07109F06FF90646C1
:101748000F46002C3FF46EAF00210A9A0020C3F622
:10175800F07100F049FD02460B463046394609F063
:101768005DF906460F465DE710D1039C10A8631E7D
:1017780050F82350ED151EE7039910A84B1E50F89A
:101788002320C2F3160240F8232048E70023002252
:10179800C3F6E07309F07CFD054600283FF442AF2C
:1017A800039C02250AF1010A002C3FF70CAF002424
:1017B80024E70024002572E6069530460A9D39463E
:1017C800CDF81CA06A4200F00FFD00230022C4F2ED
:1017D800701304460D4609F05BFD002800F0CB812C
:1017E80000230022C3F670632046294609F0CAFA8E
:1017F8000A9F18370A9709F05FFD064609F05CFA58
:1018080000230022C4F2701309F0BCFA02460B460A
:101818002046294609F002F9039C09F04DFD10AD58
:1018280004F1010845F8240045F8286000210A9AC7
:101838000020C3F6F07100F0D7FCB8F1000F0446A1
:101848000D465FDB08F101070397039910A874AAF6
:1018580000EB870702EBC10657F8040D09F02CFAD4
:1018680022462B4609F08EFA0023C3F67063002245
:1018780066E902012046294609F084FA029B9F4244
:1018880004460D46E8D108F1005B74AC0BF1FF3B50
:10189800CDF82080DDF830804FF0000904EBCB0B49
:1018A8000DF5987ACDF810A0B8F1000FBCBF002450
:1018B800002519DBDFF8D8A25F46002400250026A2
:1018C80001E04E4510DCF7E902230136FAE902018E
:1018D80009F058FA02460B462046294609F0A0F8B6
:1018E800B04504460D46ECDA049FABF1080B07EB54
:1018F800C90309F10109C3E90045039CA145D3D1F6
:10190800DDF82080A69D032D00F29580DFE815F014
:10191800E5009A009A000400B8F1000FDEBF002627
:101928000DF5987A34466DDD0DF5987A4FEAC80BB7
:101938000AEB0B0208F101030DF59C7C0AEBC303CB
:10194800D2E900679946039359E9044532463B4674
:10195800CDF804C020462946CDE9044509F060F8D1
:1019680004460D4622462B46DDE9040109F056F8E7
:1019780032463B46264609F053F8DDF804C02F46A8
:1019880069E90201E14549E90245DDD1B8F1010FF4
:10199800DCBF0026344635DD0AEB0B03DDF80CC04E
:1019A8000AF1100BCDF810A0D3E90045E2465AE938
:1019B800048922462B464046494609F031F8064636
:1019C8000F4632463B464046494609F027F822462C
:1019D8002B46344609F024F83D466AE90201DA4507
:1019E8004AE90267E3D10026DDF810A0039D3446DA
:1019F800304675E90223214609F012F8AB45064640
:101A08000C46F5D1069D002D00F0A7800B9D04F132
:101A18000044DAF80020DAF80830DAF80400DAF8D6
:101A28000C1000F100406C6101F100412E6168600A
:101A3800E9602A60AB60079C04F007000DF51D7D86
:101A4800BDE8F08FB8F1000FBEBF00260DF5987AFB
:101A5800344611DB08F101050DF5987A00260AEBEA
:101A6800C5053446304675E90223214608F0D8FFFB
:101A7800554506460C46F5D1069D002D51D004F17A
:101A880000450B9F2946304623463246C7E90001E8
:101A9800DAE9000108F0C2FFB8F1000F05460C466C
:101AA8000BDD0AEBC8082846FAE90223214608F0AC
:101AB800B7FFC24505460C46F5D1069808B104F1B2
:101AC800004423460B9C2A46C4E90223079C04F0E1
:101AD80007000DF51D7DBDE8F08FB8F1000F54DB50
:101AE80008F101064CAF002407EBC6062546204640
:101AF80076E90223294608F093FFBE4204460D46C4
:101B0800F5D1069808B105F1004522460B9C2B46F5
:101B1800C4E90023079C04F007000DF51D7DBDE80E
:101B2800F08F2546ADE7069510AD0A9C55F828308C
:101B3800183CCDF81CA00A94002B7FF477AE05EB77
:101B48008803224653F8041D08F1FF38183A002983
:101B5800F8D00A926AE6012392E532462346DAE98A
:101B680000010B9CDAE90267C4E90423C4E9000117
:101B7800C4E902675FE72046294609F09DFBDDF8C6
:101B88000C8010AF47F8280050E600242546B8E737
:101B980048480108000000002DE9F04F994621F05F
:101BA800004385B0B3F1795F04460D46904604DAE8
:101BB80009F082FB002800F0868022462B4620464A
:101BC800294609F0DFF822462B4606460F4609F05B
:101BD800D9F83FA3D3E9002382468B4630463946DD
:101BE80009F0D0F83CA3D3E9002308F017FF3246E8
:101BF8003B4609F0C7F83AA3D3E9002308F010FFE1
:101C080032463B4609F0BEF837A3D3E9002308F073
:101C180005FF32463B4609F0B5F835A3D3E9002362
:101C280008F0FEFE0E9BCDE90201002B35D0002303
:101C3800404649460022C3F6E07309F0A3F8DDE9FF
:101C48000223CDE900015046594609F09BF80246A7
:101C58000B46DDE9000108F0E1FE32463B4609F09B
:101C680091F842464B4608F0D9FE23A3D3E9002356
:101C780006460F465046594609F084F802460B4678
:101C88003046394608F0CCFE02460B462046294627
:101C980008F0C4FE05B0BDE8F08FDDE90223304648
:101CA800394609F06FF814A3D3E9002308F0B6FE0B
:101CB80052465B4609F066F822462B4608F0B0FE0D
:101CC80005B0BDE8F08F2046294605B0BDE8F08F85
:101CD8007CD5CF5A3AD9E53DEB9C2B8AE6E55A3EAE
:101CE8007DFEB157E31DC73ED561C119A0012A3F4A
:101CF800A6F810111111813F495555555555C53F45
:101D08004FF6FF732DE9F04FC4F20F4321F000485E
:101D180083B0984583468A460F4623DD0021C7F6DF
:101D2800F071884500F3CB8014BF002301230028FD
:101D38000CBF002203F00102002A40F0C08042F2EA
:101D4800FB1A42F6185B5346CBF6F97AC3F6F973D9
:101D5800C5F2444B002FC8BF9A465846514603B0B7
:101D6800BDE8F08F4FF6FF73C3F6DB73984500F3B9
:101D7800C6804FF6FF73C3F61F63984540F3AC80E7
:101D88004FF0FF3C5A46534658465146CDF804C0DA
:101D980008F0F8FF02460B468046894608F0F2FF35
:101DA80097A3D3E9002304460D4608F0EBFF96A35A
:101DB800D3E9002308F034FE22462B4608F0E2FF60
:101DC80093A3D3E9002308F02BFE22462B4608F004
:101DD800D9FF91A3D3E9002308F022FE22462B461F
:101DE80008F0D0FF8EA3D3E9002308F019FE22469D
:101DF8002B4608F0C7FF8CA3D3E9002308F010FE98
:101E080042464B4608F0BEFF89A3D3E9002380462B
:101E180089462046294608F0B5FF87A3D3E9002361
:101E280008F0FCFD22462B4608F0ACFF84A3D3E95A
:101E3800002308F0F3FD22462B4608F0A3FF82A3F7
:101E4800D3E9002308F0EAFD22462B4608F09AFF62
:101E58007FA3D3E9002308F0E1FD22462B4608F0D2
:101E680091FFDDF804C0BCF1FF3F02460B466CD081
:101E780044F690044046C0F60104494604EBCC04FD
:101E880008F0CEFD5A46534608F07CFFD4E90823F3
:101E980008F0C4FD5A46534608F0C0FD02460B46FA
:101EA800D4E9000108F0BAFD002F8A468346B8BF7E
:101EB80001F1004A5846514603B0BDE8F08F584634
:101EC80051465A46534608F0ABFD83468A46584663
:101ED800514603B0BDE8F08F5FA3D3E9002308F0B3
:101EE8009FFD00230022C3F6F07309F0DBF90028F8
:101EF8003FF446AF5846514603B0BDE8F08F00F0B6
:101F0800AFF84FF6FF73C3F6F273984504460D46D3
:101F18002CDC4FF6FF73C3F6E57398455EDC02468A
:101F28000B464FF0000CCDF804C008F079FD0023F3
:101F38000022C3F6F07308F071FD00224FF08043D1
:101F480080468946204629462EE04046494608F004
:101F580067FD5A46534608F015FF02460B46584699
:101F6800514608F05BFD83468A46B0E747F6FF73A3
:101F7800C4F20303984524DC00230022C3F6F87357
:101F88004FF0020CCDF804C008F048FD00230022F1
:101F9800C3F6F873804689462046294608F0F2FEC3
:101FA80000230022C3F6F07308F03AFD02460B4600
:101FB8004046494609F010F8DDF804C083468A46D1
:101FC800E0E60B4600210246CBF6F071002009F04E
:101FD80003F84FF0030C83468A46D3E60023002219
:101FE800C3F6F0734FF0010CCDF804C008F016FDED
:101FF8008046894620462946D2E700BFAFF30080D5
:1020080011DA22E33AAD903FEB0D76244B7BA93FE2
:10201800513DD0A0660DB13F6E204CC5CD45B73FB0
:10202800FF8300922449C23F0D5555555555D53F5C
:102038002F6C6A2C44B4A2BF9AFDDE522DDEAD3F50
:102048006D9A74AFF2B0B33F711623FEC671BC3FF0
:10205800C4EB98999999C93F9C7500883CE4377EF0
:1020680021F00041704700BF2DE9F84FC1F30A572E
:10207800A7F2FF360246132E0B4604460D46894644
:102088008A46804625DC002E49DB4FF6FF77C0F2F2
:102098000F07374107EA010C5CEA000C1ED038A391
:1020A800D3E9002308F0BCFC0022002309F0FAF869
:1020B80058B1002D4FF00008BEBF4FF4801A4AFAFD
:1020C80006F606EB050A2AEA070940464946BDE82E
:1020D800F88F332E06DDB6F5806F3CD010461946D2
:1020E800BDE8F88F4FF0FF3BA7F2134C2BFA0CFB1F
:1020F8001BEA000FF2D022A3D3E9002308F090FCDA
:102108000022002309F0CEF80028DED0002D26DBBF
:1021180028EA0B08D14640464946BDE8F88F18A37F
:10212800D3E9002308F07CFC0022002309F0BAF868
:102138000028CAD0002DA4BF4FF00008C146C4DA59
:1021480025F0004200232243CBF6F07318BF9946CE
:102158004FF00008B9E708F063FCBDE8F88F142ECB
:1021680009D0C7F586674FF00108033708FA07F862
:1021780018EB0408CCD305F1010AC9E7AFF30080D6
:102188009C7500883CE4377E50EA010301D10220A7
:102198007047D0F1010338BF0023B1F1004F08BFE9
:1021A8000028F4D021F000414FF6FF72A1F580100D
:1021B800C7F6DF72904201D804207047B1F5801F3E
:1021C80001D2032070470020C7F6F070814214BF87
:1021D800002003F001007047002070470021002014
:1021E800C7F6F871704700BFC1F30A532DE9F041F3
:1021F800904606460F460A4643BB21F00043034378
:1022080039D000230022C4F2503308F0BBFD43F656
:10221800B043CFF6FF73984506460F463BDBC1F344
:102228000A530A46363B40F2FE7143448B4216DDA0
:1022380032463B462EA1D1E9000100F061F82CA3FB
:10224800D3E9002308F09EFDBDE8F08140F2FF7459
:10225800A34227D0434440F2FE718B42E8DC002BB6
:102268000BDD22F0FF42304622F4E00242EA035737
:102278003946BDE8F081BDE8F08113F1350F17DA72
:102288004CF25033324698453B4622DC1AA1D1E93C
:10229800000100F035F818A3D3E9002308F072FD17
:1022A800BDE8F08102460B4608F0BAFBBDE8F081B4
:1022B800363322F0FF4222F4E002304642EA035766
:1022C80000230022C3F69043394608F05BFDBDE8C1
:1022D800F08107A1D1E9000100F012F804A3D3E9C5
:1022E800002308F04FFDBDE8F08100BFAFF3008088
:1022F8009C7500883CE4377E59F3F8C21F6EA5012F
:1023080010B421F0004203F0004444EA02015DF8F1
:10231800044B704708B5062000F014FD01200AF0B0
:1023280047FC00BF40F204030A46C2F2000301461C
:10233800186800F001B800BF10B502FB01F100F009
:1023480043F8044670B150F8042C22F00302043A12
:10235800242A1DD8132A98BF034605D800221A60DC
:102368005A609A60204610BD1B2A4FF0000198BFA2
:1023780000F1080301604160F0D9242A8160C1603E
:1023880011BF00F11003016100F118034161E5E795
:10239800002100F0D1FA204610BD00BF40F204032E
:1023A800C2F200031868704740F204030146C2F203
:1023B8000003186800F008B840F204030146C2F2AE
:1023C8000003186804F00ABF2DE9F04F01F10B046F
:1023D800162C83B08EBF24F0070400231024074670
:1023E80088BFE30F8C422CBF194643F00101002936
:1023F80040F0BA8000F0F0FAB4F5FC7F20D240F249
:10240800F8064FEAD40CC2F2000606EBCC02D368F9
:10241800934200F0F781596803F10808DA683846F2
:1024280021F00304996823445C68CA6044F00104FD
:1024380091605C6000F0D2FA404603B0BDE8F08FCE
:102448005FEA542C04BF7E254FF03F0C40F0948087
:1024580040F2F806C2F2000606EB8505EB689D42DD
:1024680006D10DE0002A80F26481DB689D4207D026
:10247800596821F003010A1B0F2AF3DD0CF1FF3C18
:102488000CF1010C40F2F8023369C2F2000202F1C9
:10249800080E734508BF516823D0586820F0030020
:1024A800011B0F2900F392810029C2F814E0C2F839
:1024B80010E06CDAB0F5007F80F06181C0084FF061
:1024C8000108516802EBC005801008FA00F848EAD4
:1024D8000108A8684146DD60C2F804809860AB60D6
:1024E800C36001224FEAAC0302FA03F38B425CD8C3
:1024F80019420BD193402CF0030C19420CF1040C37
:1025080004D15B000CF1040C1942FAD006EBCC089C
:10251800E1464046C268904207D16BE1002980F24B
:102528007B81D268904200F06581556825F00305EB
:10253800291B0F29F2DD9046D5683846131958F83B
:10254800087F44F0010C41F00104C2F804C0FD60AA
:10255800AF6073613361C3F80CE0C3F808E05C60F6
:10256800595000F03BFA67E74FF000080C2303606E
:10257800404603B0BDE8F08FBCF1040F00F2EB80D9
:102588004FEA941C0CF1380C4FEA4C0560E71A1816
:1025980003F108083846536843F00103536000F01C
:1025A8001DFA404603B0BDE8F08FB5686B6823F0AC
:1025B800030A544504D8C4EB0A030F2B00F3A88080
:1025C80040F2CC59D6F80814C2F200093846013155
:1025D80005EB0A02D9F800300192234417BF03F52E
:1025E800805303F1100B0F3323F47F6318BF23F0DC
:1025F8000F0B594600F064FA019AB0F1FF3F80468C
:1026080000F02081824200F21A81D9F80430424554
:102618005B44C9F8043000F06581D6F8081440F22C
:10262800F800C2F20000013117BFC2EB0802C0F87F
:1026380008849B18C9F8043018F0070338461FBFF0
:10264800C3F10802C3F58053904403F1080208EB74
:102658000B0308BF4FF48052C3F30B03C3EB020B09
:10266800594600F02DFA40F2CC52C6F80880C2F262
:102678000002431CD9F8043015BFC8EB0001012142
:1026880059444FF0000B18BF41F00101B5425B44BB
:10269800C8F80410C9F8043018D0BAF10F0F40F286
:1026A8000081AAF10C00696820F007004FF0050CC2
:1026B80005EB000E0F2801F0010140EA01016960F5
:1026C800CEF804C0CEF808C000F2188140F2CC520F
:1026D800D9F82C10C2F20002B5688B42D9F8301034
:1026E80088BFD36240F2CC52C2F200028B4288BF4C
:1026F80013636A6822F003029442C4EB020301D810
:102708000F2B05DC38464FF0000800F067F993E618
:102718002A1943F00103384644F001046C6005F1BE
:102728000808B260536000F059F9404603B0BDE8AC
:10273800F08F1944DA689C6838464D6803F1080838
:10274800E26045F0010594604D6000F047F94046AD
:1027580003B0BDE8F08FBCF1140F9CBF0CF15B0C0B
:102768004FEA4C057FF674AEBCF1540F00F28F802F
:102778004FEA143C0CF16E0C4FEA4C0568E6420A2D
:10278800042A58D9142A9CBF02F15B014D0005D9CF
:10279800542A00F2BC80010B6E314D0006EB850512
:1027A80040F2F808C2F20008AA68AA427FD051682D
:1027B80021F00301884202D292689542F7D1D0688D
:1027C8007168D8609A608360D3608AE61D1941F009
:1027D800010644F0010438465C6003F108085561BD
:1027E8001561C5F80CE0C5F808E06E60695000F0A6
:1027F800F5F821E609F10109083019F0030F7FF413
:1028080089AE28E003F108025B699A4208BF0CF11F
:10281800020C3FF437AEFEE590461544D3683846BF
:1028280058F8082F696841F001016960D3609A601F
:1028380000F0D4F800E6810938314D00AEE7B54222
:102848003FF4E3AEB5686A6822F0030254E7D8F8AB
:10285800008090456DD11CF0030FA8F108020CF11F
:10286800FF3CF4D1726822EA030272605B00934273
:102878003FF69BAE002B3FF498AE1A42CC467FF44D
:1028880045AE5B000CF1040C1A42FAD03EE6BCF5EA
:10289800AA7F18D84FEAD43C0CF1770C4FEA4C05C4
:1028A800D6E501234546C8F80430002224E74FF056
:1028B80001098D10D8F80410104609FA05F52943C6
:1028C800C8F804107DE740F254539C4595BF4FEA81
:1028D800944CFC250CF17C0C4FF07E0C98BF4FEA11
:1028E8004C05B5E5C2F30B0100297FF496AEB2683A
:1028F8000BEB0A0141F001015160E7E605F108011F
:102908003846019204F06AFC019A5368DEE6B2F593
:10291800AA7F03D8C10B77314D003FE740F25451ED
:102928008A4295BF810CFC257C317E2198BF4D00E1
:1029380034E772689AE700BF8307F0B448D0541EA2
:10294800002A43D0CDB2034602E0002C3ED0144604
:1029580003F8015B13F0030F04F1FF32F5D1032CE8
:102968002DD9CDB20F2C45EA052545EA054518D9DC
:10297800A4F1100703F110061A463F0906EB0716E3
:102988001560103242F80C5C42F8085C42F8045CAE
:10299800B242F5D104F00F040137032C03EB0713FF
:1029A8000DD91E462246043A46F8045B032AFAD893
:1029B800221F04F0030422F00302043213442CB152
:1029C800C9B21C4403F8011BA342FBD1F0BC7047F9
:1029D80014460346C3E700BF704700BF704700BFF7
:1029E8000EB430B582B00446059D18B183690BB9A1
:1029F80004F0ACFA204606AC2A46234681680194C6
:102A080001F080FD02B0BDE8304003B0704700BF60
:102A18000FB440F20403C2F2000330B583B01C685F
:102A2800069D24B1A36913B9204604F08FFA204605
:102A380007AC2A4623468168019401F063FD03B080
:102A4800BDE8304004B0704730B5044689B0084648
:102A58000D4600F0CDFA44F640430122C0F60103CA
:102A68000495069304AB0792019302230293059001
:102A7800013003900CB1A369B3B1A16820468B89DA
:102A88009A045FBF43F400538B814A6E22F40052CC
:102A980058BF4A6601AA04F06DFC00280CBF0A2042
:102AA8004FF0FF3009B030BD204604F04FFAE4E79C
:102AB80040F204030146C2F200031868FFF7C4BFDE
:102AC80038B540F6CC64C2F2000405460846002337
:102AD80023600AF077F8431C00D038BD2368002B28
:102AE800FBD02B6038BD00BF2DE9F84340F2040548
:102AF800C2F200050446884617462E68994616B164
:102B0800B369002B71D044F65415C0F60105AC42E8
:102B180008BF74680ED044F63413C0F601039C4213
:102B280008BFB46806D044F61413C0F601039C42EB
:102B380008BFF4684FEAD975022F88BF45F0010530
:102B4800002D34D13046214604F08EF9A389656002
:102B58001A06A5612FD4022F4FF67C7503EA0505E6
:102B6800A58134D0B8F1000F43D0012F01BF45F043
:102B78000105A581C9F10003A361ADB246F6017351
:102B880005F00800C0F60003B36280B2C4F8008004
:102B9800C4F81080C4F8149058B115F0030F4FF022
:102BA80000000CBF4B460346A360BDE8F8834FF016
:102BB800FF30BDE8F8833046216904F00FFBA38994
:102BC800022F4FF67C7503EA0505A581CAD10020BE
:102BD80004F1470345F002050022A581A260012205
:102BE800236023616261BDE8F883304604F0AEF9E2
:102BF80089E7B9F1000F08BF4FF480694846FFF72D
:102C0800D3FB804628B1A58945F08005ADB2A581E2
:102C1800ABE74FF48060FFF7C7FB804618B9A5897A
:102C28004FF0FF30D4E74FF48069ECE738B504463D
:102C3800456C0DB1002038BD8021FFF7C5FB6064ED
:102C480050B12B460246294600E0626CD15004334D
:102C5800802BFAD1002038BD4FF0FF3038BD00BFBF
:102C68001F2910B5044682B007D8436C5BB153F8EE
:102C7800210043F8212002B010BD16234FF0FF3089
:102C8800236002B010BD01910092FFF7CFFF0199B8
:102C9800009A08B9636CEAE74FF0FF30EBE700BF32
:102CA8001F2938B50C4605461FD8426C9AB152F810
:102CB800213083B1012B0CD0591C06D000252046A9
:102CC80042F824509847284638BD162301202B6027
:102CD80038BD002038BD284600F06AF82246014673
:102CE8002846BDE8384000F04FB816234FF0FF30B3
:102CF8002B6038BD1F2910B5044682B01ED8436C1E
:102D0800ABB153F8212003EB810372B1501C08BF0B
:102D1800022008D0012A08BF032004D00846002456
:102D28001C609047204602B010BD0120FBE70191CE
:102D3800FFF77CFF019908B9636CE2E74FF0FF30B9
:102D4800F1E700BF40F204030146C2F2000318682D
:102D5800FFF7A6BF40F204030A46C2F20003014689
:102D68001868FFF77DBF00BF40F20403C2F20003FA
:102D78001868FFF75BBF00BF40F204030146C2F2C8
:102D880000031868FFF7B6BF38B540F6CC64C2F246
:102D980000040546084611460023236009F070FE2A
:102DA800431C00D038BD2368002BFBD02B6038BDF6
:102DB80009F058BE40EA010C1CF0070F27D1BDF1FD
:102DC800100DCDE90245CDE900676FF000064FF020
:102DD800000700BFF0E80223F1E80245A242A2F191
:102DE800013C2CEA020C0CF0803C08BFBCF1000F3F
:102DF80040F0E580AB42A3F1013C2CEA030C0CF057
:102E0800803C08BFBCF1000F40F0D680E2E710F02C
:102E1800030C21D020F0030050F8042B5FEACC7C8F
:102E280008D00FD211F801CB5FFA92F3B3EB0C0C78
:102E380010D17BB111F801CB5FFAA2F3B3EB0C0C04
:102E480008D13BB111F801CB5FFAB2F3B3EB0C0C2C
:102E580000D10BB960467047BDF1100DCDE90245B0
:102E6800CDE900676FF000064FF0000711F0030C82
:102E780033D110F0040F0FD050F8042B51F8044B45
:102E8800A242A2F1013C2CEA020C0CF0803C08BFE3
:102E9800BCF1000F40F0938011F0040F99D051F865
:102EA800045B00BFF0E80223AA42A2F1013C2CEA2D
:102EB800020C0CF0803C08BFBCF1000F79D1F1E89E
:102EC8000245A342A3F1013C2CEA030C0CF0803C20
:102ED80008BFBCF1000F69D1E4E721F00301BCF1A0
:102EE800020F20D03FDA51F8045B00BF50F8043BD2
:102EF8004FEA1525A3F1013C2CEA030C0CF0803CA9
:102F0800B7EB0C2F03EA162208BFAA4251D151F899
:102F1800045BBCF1000F82EA03034FEA056208BFB5
:102F2800934240D1E2E751F8045B00BF50F8043BFC
:102F38004FEA1545A3F1013C2CEA030C0CF0803C48
:102F4800B7EB0C4F03EA164208BFAA4231D151F839
:102F5800045BBCF1000F82EA03034FEA054208BF95
:102F6800934220D1E2E751F8045B00BF50F8043BDC
:102F78004FEA1565A3F1013C2CEA030C0CF0803CE8
:102F8800B7EB0C6F03EA166208BFAA4211D151F8D9
:102F9800045BBCF1000F82EA03034FEA052208BF75
:102FA800934200D1E2E719BA12BA0AE019BA22BA72
:102FB80007E011BA2ABA04E019BA2ABA01E011BA2C
:102FC80022BA9CFA8CF0DDE90067DDE902451DF1C3
:102FD800100D38B1B0FA80F0C0F1180021FA00F1F4
:102FE80022FA00F20120914298BF8041704700BF49
:102FF80020F0030110F00300C0F1000051F8043B79
:1030080000F1040C4FEACC0C6FF000021CBF22FA4E
:103018000CF213434FF0010C4CEA0C2C4CEA0C4C0C
:10302800A3EB0C0222EA030212EACC1204BF51F805
:10303800043B0430F4D013F0FF0F1FBF013013F42A
:103048007F4F013013F47F0F18BF0130704700BF66
:103058002DE9F04FC9B0914614930B910E9004F0EE
:103068008BFB00681A90FFF7C3FF0B9CA3891D9088
:10307800180603D52369002B01F0798044F6D4059E
:1030880038ACC0F6010515950DF1DF050895159DBD
:1030980038AF099444F67C7405F11006089D0023A6
:1030A800C0F60104119317947C1B1B931C9319936E
:1030B8001E93129321942D932C932B9799F80030FB
:1030C800252B18BF002B00F0B38009F1010214462C
:1030D80001322378252B18BF002BF8D1B4EB090552
:1030E8000FD02C9B2D9A0133C7F80090072B7D60D9
:1030F8002A442C932D92D8BF08377FDC1298284495
:1031080012902378002B00F0818000238DF88F30F7
:103118001A4613930A9304F1010963784FF0FF34B8
:103128000C9409F10109A3F12001582900F20A843D
:10313800DFE811F08E030804080495030804080466
:1031480008040804080408049C03480308045D00F4
:1031580035020804EF03F603F603F603F603F60355
:10316800F603F603F603F603080408040804080443
:103178000804080408040804080408046E029002FD
:10318800080490020804080408040804CD0208048E
:103198000804D402080408040804080408045502B2
:1031A80008040804BC030804080408040804080404
:1031B80008040804080408040804A803D7039002B4
:1031C800900290028703D703080408044C030804FC
:1031D8005E0324027003F0020804F702080480006A
:1031E800080408042003139C1493644213940A9D52
:1031F80045F004050A9599F8003092E70E982BAA35
:103208000B9905F019FB40B938AF77E72D9B23B12F
:103218000E982BAA0B9905F00FFB0B9C1298A3890B
:1032280013F0400F18BF4FF0FF3049B0BDE8F08FE2
:103238004C4666E70A9C1693A30640F1D981149D73
:103248000123EA1D22F0070202F108041494D2E9CE
:1032580000454FF0000A8DF88FA00C9800280C98B4
:10326800A2BF0A9921F080010A9154EA05020CBF15
:1032780000220122002818BF42F00102002A00F0B3
:10328800E583012B00F00985022B0DF1DF0240F0E8
:103298005981DDF864C004F00F01230943EA05737E
:1032A80028091CF801101C460546904654EA0500FA
:1032B80002F1FF3288F80010EDD1099BC8EB030337
:1032C80010930C9C109DA542B8BF254600240D956F
:1032D8001894BAF1000F02D00D9D01350D950A9B87
:1032E80013F002030F931EBF0D9C02340D940A9C29
:1032F80014F0840540F04683139C0D98C0EB040B32
:10330800BBF1000F40F33E83BBF1100F44F6D40A23
:103318002D99DCBFC0F6010A2C9A32DDC0F6010AED
:10332800CDF87C802095D8462C9AD3461024CA46DE
:10333800159DDDF82C9004E0A8F11008B8F1100FE5
:1033480019DD01321031072A3D607C6007F108075A
:103358002C922D91F0DD0E9849462BAA38AF05F036
:103368006BFA00287FF459AFA8F110082D99B8F12D
:10337800100F2C9AE5DCD146209DDA46C346DDF8CD
:103388007C8001320BEB0104072A2C922D9487E8EC
:10339800000C00F3EC829DF88FA00837BAF1000FFB
:1033A8000ED02C9B0DF18F0201343A6001330122BB
:1033B800072B7A602D94D8BF08372C9300F302842A
:1033C8000F9B6BB12C9B24AA02343A600133022272
:1033D800072B7A602D94D8BF08372C9300F3FE830F
:1033E800802D00F046830C9D109BC3EB050ABAF1B3
:1033F800000F43DDBAF1100F2C9BDCBF944D0F95E5
:1034080027DD934822461025DDF838B00B9C0F9035
:1034180004E0AAF1100ABAF1100F19DD01331032D5
:10342800072B3E607D6007F108072C932D92F0DD95
:10343800584621462BAA38AF05F0FEF900287FF43C
:10344800ECAEAAF1100A2D9ABAF1100F2C9BE5DC0C
:10345800144601330F9D072B54442C9387E820040E
:10346800D8BF08372D9409DD0E982BAA0B9905F0C3
:10347800E3F900287FF4D1AE2D9C38AF0A9DEB0507
:1034880000F182822C9B109D0133C7F80080072B26
:103498002C447D602D942C9300F37A8308370A9D81
:1034A8006B0740D513980D99451A002D3BDD102D5B
:1034B80044F6D40A2C9BC0F6010A22DD22464FF0BE
:1034C8001008DDF838B0159C02E0103D102D17DD0E
:1034D80001331032072B87E810012C9307F10807F6
:1034E8002D92F2DD58460B992BAA38AF05F0A4F9B6
:1034F80000287FF492AE103D2D9A102D2C9BE7DC0E
:10350800144601332C44072B2C932D94C7F800A0A4
:103518007D6008DD0E982BAA0B9905F08DF900281F
:103528007FF47BAE2D9C129D0D9913988142ACBF00
:103538006D182D181295002C40F03583002338AFF4
:103548002C93BBE5E308E90843EA457390460D462A
:1035580004F007021C4602F1300354EA050108F1A1
:10356800FF3288F80030EDD10A9C4146E00700F1AF
:10357800F584099DC8EB05051095A2E60A9D1693EA
:1035880015F0200300F0B480149C0023E21D22F003
:10359800070202F108051495D2E9004559E699F8A1
:1035A800003009F101042A2B00F09187A3F13001C2
:1035B800092982BFA14600240C943FF6B4AD00202F
:1035C80000EB800014F8013B01EB4000A3F130014F
:1035D8000929F5D940EAE070A1460C90A3E50A9DB7
:1035E800169345F010050A950A9CA3063FF527AEE9
:1035F8000A9DED0600F1C4830A9C640640F1C0836D
:10360800149800250123043030F8044C149020E667
:103618000A9C169344F010040A940A9D8DF88F2092
:10362800A90640F16581149CE31D23F0070303F10B
:1036380008051495D3E9002314461D46002A73F1A2
:103648000000C0F2BB839DF88FA0012305E600BFF0
:10365800E44801080A9C169325078DF88F2040F14D
:10366800AB84149DEB1D23F0070303F108041494A5
:103678001D681B955B681C931B981C99FEF784FDBD
:1036880001281B9840F07884002200231C9907F039
:10369800EBFD002840F04A869DF88FA00325002402
:1036A80044F6407844F63C730D95C0F601080A9D2F
:1036B800C0F601030C94169C25F080050A95032595
:1036C800472CD8BF984610950024189401E60A9D07
:1036D80045F008050A9599F8003022E50A9C1693EA
:1036E80044F010040A940A9D15F020037FF44CAFAF
:1036F8000A9C14F0100240F04C830A9C14F040031A
:1037080000F04783149813460025043030F8044C21
:1037180014909EE50A9D45F020050A9599F8003019
:10372800FFE4149C0025169304348DF88F5054F848
:10373800048CB8F1000F00F0D9850C980028404699
:10374800C0F2AB8529460C9A04F09CF8002800F0DA
:10375800FF851494C8EB00000C9C0C95A042B8BFE0
:103768000446109424EAE4750C9C0D959DF88FA0EE
:103778001894AEE50A9D44F66074C0F601041693E9
:10378800A8068DF88F20199440F19C80149CE31DA5
:1037980023F0070303F108051495D3E900450A98B7
:1037A800C30740F1278254EA050100F02382169AE4
:1037B800302340F002008DF890300A9002238DF8F3
:1037C800912046E599F800302B22AAE499F80030B8
:1037D80049466C2B05BF09F101090A9D0A9C45F071
:1037E80020050BBF4B7844F010040A950A9498E41E
:1037F8000A9D8DF88F20A90640F1EB83149C21685F
:10380800129C2246E5172B46149DC1E90023043576
:10381800149553E4149A44F660700A9D7823C0F610
:1038280001008DF8913045F0020516930A95302372
:10383800151D8DF8903014950223146800251990F1
:1038480007E50A9C44F040040A9499F8003068E4BB
:1038580099F80030002A7FF464AC202261E40A9DC4
:1038680045F001050A9599F800305AE4149C149D16
:1038780024682B1D002C1394FFF6B5AC149399F80B
:1038880000304EE4149A0124149D0DF1B8081693E3
:103898000023126804359A460D9414958DF88F30DC
:1038A8000C93189310948DF8B82018E50A9D44F6E7
:1038B8004C74C0F601041693A8068DF88F2019944D
:1038C8003FF564AF0A9CE10600F153820A9C620648
:1038D80040F14F8214980025043030F8044C1490BD
:1038E8005DE70A9D1693A9068DF88F203FF59BAEDC
:1038F8000A9CE20600F155820A9C630640F1518257
:103908001498043030F9044C14902246E5172B46DD
:1039180094E60A9D45F080050A9599F8003000E480
:103928000024A3F130012046139400EB800019F81D
:10393800013B01EB4000A3F130010929F5D91390AF
:10394800FFF7F1BB16938DF88F20002B3FF45EAC88
:10395800169C002301259A460D950DF1B8088DF89F
:10396800B8408DF88F300C9318931095B7E40E98E3
:103978002BAA0B9904F060FF00287FF44EAC9DF849
:103988008FA038AF2D9C09E5169D652D40F3B980B1
:103998001B98002200231C9907F05CFC002800F00B
:1039A8002C812C9B0122179D013413447A60072B2C
:1039B8002D943D60D8BF08372C9300F31683259BC0
:1039C800119DAB4203DB0A9DED077FF568AD1D9D98
:1039D8002C9B2C441A9D01332D94072B2C933D606E
:1039E8001D9D7D60D8BF083700F35E83119D05F1EA
:1039F800FF38B8F1000F7FF752ADB8F1100F2C9BCC
:103A080040F3AA81AC4D4FF0100ADDF82CB00F95A9
:103A18000E9D05E0A8F11008B8F1100F40F39E8143
:103A280001331034072B87E840042C9307F108076B
:103A38002D94EFDD284659462BAA38AF04F0FCFE3A
:103A480000287FF4EAAB2D9C2C9BE3E7002B40F089
:103A5800B4800A9CE2075CBF10930DF1E0087FF583
:103A680030AC219D30230DF1DF088DF8DF30109543
:103A780027E413980D99451A002D7FF7B4AC102D43
:103A88002C9BDCBF8C4A0F9224DD8B4822464FF0DA
:103A9800100BDDF838A00B9C0F9002E0103D102DA4
:103AA80017DD01331032072B87E840082C9307F104
:103AB80008072D92F2DD504621462BAA38AF04F0B4
:103AC800BBFE00287FF4A9AB103D2D9A102D2C9B2E
:103AD800E7DC144601330F99072B2C442C9387E815
:103AE8002200D8BF08372D947FF77DAC0E982BAAFB
:103AF8000B9904F0A1FE00287FF48FAB2D9C38AF02
:103B080071E4119D2C9B012D40F3E2810121621C7F
:103B18000B44C7F80080072B79602D92D8BF08376F
:103B28002C9300F3F4811A9D5C1CDDF874A0072C1B
:103B38002C943D6092441D9DCDF8B4A07D60D8BF03
:103B4800083700F3D7811B98002200231C9907F03F
:103B580081FB002840F0B2800134119D072C08F148
:103B6800010205F1FF332C949A443A60CDF8B4A0D1
:103B78007B6000F3E4800837631C1E9D1E9C072BA6
:103B880027AA2C93544487E824002D947FF786AC09
:103B98000E982BAA0B9904F04FFE00287FF43DAB3A
:103BA8002D9C38AF7BE40E982BAA0B9904F044FEA9
:103BB80000283FF4C3ACFFF730BB10920DF1E008CA
:103BC800FFF77FBB0E982BAA0B9904F035FE00284F
:103BD8007FF423AB2D9C38AFFFF7F2BB0E982BAACE
:103BE8000B9904F029FE00287FF417AB2D9C38AF01
:103BF800FFF7F6BB0223FFF72CBB259B002B40F3F6
:103C0800FF81119D189811998542A8BF0546002D7E
:103C180041440C910CDD2C9B2C44C7F800800133E7
:103C28007D60072B2D942C93D8BF083700F343836E
:103C3800189A25EAE575C5EB020ABAF1000F40F3B8
:103C4800DD80BAF1100F2C9BDCBF1B4D0F9540F3A4
:103C5800C080194D22464FF0100B0B9C0F950E9DFE
:103C680005E0AAF1100ABAF1100F40F3B180013350
:103C78001032072B87E840082C9307F108072D928C
:103C8800EFDD284621462BAA38AF04F0D5FD0028E1
:103C98007FF4C3AA2D9A2C9BE3E7002D08BF0A2CBA
:103CA80080F04181219D30340DF1DF088DF8DF402F
:103CB8001095FFF706BB00BFE4480108119D05F108
:103CC800FF38B8F1000F7FF757AFB8F1100FDCBF1E
:103CD800A84B0F9328DDA74D53464FF0100BDDF886
:103CE8002CA00F950E9D04E0A8F11008B8F1100F54
:103CF80019DD01341033072C87E840082C9407F1AC
:103D080008072D93F0DD284651462BAA38AF04F05A
:103D180093FD00287FF481AAA8F110082D9BB8F123
:103D2800100F2C9CE5DC9A4601340F9B072CC244EB
:103D38002C94CDF8B4A087E808017FF71CAF0E9843
:103D48002BAA0B9904F078FD00287FF466AADDF809
:103D5800B4A038AF2C9C0FE7864D0F9501330F9D0B
:103D6800072B44442C932D9487E820017FF796ABCA
:103D78000EE7149D043555F8044C149500250EE5FE
:103D8800149D0123043555F8044C14950025FFF7BC
:103D980060BA149D043555F8044C14950025FFF7B6
:103DA80058BA149D043555F8044C14952246E51765
:103DB8002B46002A73F10000BFF645AC4FF02D0AE0
:103DC800644265EB45058DF88FA00123FFF745BADE
:103DD800144601330F9D072B54442C9387E8200485
:103DE800D8BF08372D9409DD0E982BAA0B9904F03B
:103DF80023FD00287FF411AA2D9C38AF189D259B20
:103E0800A844119DAB4249DB0A9DE90746D40C98AA
:103E18001199C8EB0005CB1AAB42B8BF1D46002D5F
:103E28000CDD2C9A2C44C7F8008001327D60072AEB
:103E38002D942C92D8BF083700F34A8225EAE575FD
:103E4800C5EB0308B8F1000F7FF729ABB8F1100FE5
:103E58002C9B81DD474D4FF0100ADDF82CB00F95F3
:103E68000E9D05E0A8F11008B8F1100F7FF776AFA6
:103E780001331034072B87E840042C9307F1080717
:103E88002D94EFDD284659462BAA38AF04F0D4FC10
:103E980000287FF4C2A92D9C2C9BE3E71D9D2C9A3A
:103EA8002C441A9D01322D94072A2C923D601D9DA9
:103EB8007D60D8BF0837AADD0E982BAA0B9904F0AD
:103EC800BBFC00287FF4A9A9259B38AF2D9C9EE751
:103ED8000A9DEA073FF51AAE012204F1010A9C186F
:103EE800C7F80080072CCDF8B4A02C947A607FF72F
:103EF80042AE24E70E982BAA0B9904F09DFC0028EB
:103F08007FF48BA9DDF8B4A038AF2C9C1BE60E9883
:103F18002BAA0B9904F090FC00287FF47EA92D9A17
:103F280038AF2C9BFFE50DF1DF0B204629460A220E
:103F3800002307F059FAD8462046294600230BF1FA
:103F4800FF3B303288F800200A2207F04DFA044679
:103F58000D4654EA0500E8D1FFF7AFB9302B3FF41E
:103F6800ACA9099C3023904601F8013CA41A10948E
:103F7800FFF7A7B9E44801081C99FEF705F90028DE
:103F880040F0AB8003250A9C44F6487844F6447315
:103F98000D95C0F60108169DC0F6010324F08004B3
:103FA8000C900A94472DD8BF984603241890109473
:103FB8009DF88FA0FFF78DB9149CE31D23F007032C
:103FC80003F1080514951C681B945B681C93FFF7A4
:103FD80053BB0A9CE20672D5149D129C043555F811
:103FE800043C14951C60FFF769B80E982BAA0B992E
:103FF80004F022FC00287FF410A92D9C38AFDEE4E1
:104008002C9A0121179D01340A442D94072A2C92D9
:104018003D60796000F312810837194629B9119D6E
:104028001DB90A9DE8077FF53AAA2C9B1D9A013312
:104038001D9D22441A9C072B2D927D603C60D8BFA1
:1040480008372C9300F3BA81C1F1000ABAF1000FC6
:1040580040F31681BAF1100FDCBF9C4C0F9440F36B
:10406800F9809A4D1024DDF82CB00F950E9D05E0CF
:10407800AAF1100ABAF1100F40F3EC8001331032A4
:10408800072B3E607C6007F108072C932D92EFDD2B
:10409800284659462BAA38AF04F0CEFB00287FF4F7
:1040A800BCA82D9A2C9BE3E70E982BAA0B9904F039
:1040B800C3FB00287FF4B1A82D9C38AF96E4149C6C
:1040C8000A9D043454F8043C15F0400F129D1494D2
:1040D80014BF1D801D60FEF7F1BF0C9D169C0135B5
:1040E80024F0200504BF06240C9406D0472D04D1E3
:1040F8000C9C002C08BF01240C941C9B0A9C002BD0
:1041080044F480740F94BDBF1C464FF02D0B04F18E
:10411800004ADDF870A0A8BF4FF0000BB5F14604C7
:1041280061426141002930D003200C9C5346009025
:1041380025A81B9A029026A80194039029A8049008
:104148000E98079101F022FE472D0799804603D16A
:104158000A9CE00740F1F0800C9C444451B398F865
:104168000030302B00F08481259B1C4422E00E98FF
:104178004021FEF729F920602061002800F0B6816F
:104188000B9C40236361FEF779BF452D40F03181D8
:104198000C9802211B9A5346441C0091019425A9AE
:1041A8000E98029126A9039129A9049101F0EEFD28
:1041B8008046044400231B980022514607F04AF821
:1041C800234648B9299B9C4206D930215A1C29927A
:1041D8001970299B9C42F9D8472DC8EB030311930A
:1041E80000F0AE80169C652C40F38A81169D662DE2
:1041F80000F00181259C1894189C119DAC42C0F2D6
:10420800EA800A9C189DE0074BBF013525EAE57353
:1042180025EAE57367244DBF672410951694109519
:1042280048BF1694BBF1000F75D10F9C0D93CDF8C4
:1042380030B00A949DF88FA0FFF74BB80E982BAAC0
:104248000B9904F0F9FA00287EF4E7AF259938AF06
:104258002D9CE3E601330F9C072B52442C9387E8EF
:104268001004D8BF08372D920ADD0E982BAA0B9997
:1042780004F0E2FA00287EF4D0AF2D9A38AF2C9BD8
:104288000133119D119C072B2C931444C7F800800F
:104298002D947D607FF702A97AE40C95FEF7A8FEBD
:1042A80014940C9C9DF88FA0189420EAE075109047
:1042B8000D95FFF70EB80E982BAA0B9904F0BCFACF
:1042C80000287EF4AAAF2D9C38AFB1E4E448010879
:1042D8000E982BAA0B9904F0AFFA00287EF49DAF34
:1042E800259B38AF119A2D9CD31AA7E50C9DC24681
:1042F80044F674781494062D28BF0625CDF830A00E
:104308001095544625EAE575CDF860A00D95C0F6E0
:104318000108FEF7DEBF0F9D4FF02D0A00240D9314
:104328008DF88FA00A950C94FEF7D6BF4FF02D0A92
:104338008DF88FA0FFF7B2B9299BC8EB030311933F
:10434800259BDA1C11DB0C9C9C420EDB189353E76F
:104358000C9D149425EAE5750D950C9D18900C900C
:1043680010959DF88FA0FEF7B4BF169D023D1695D7
:10437800013B169D002B2593BABF5B422D222B22B1
:10438800092B8DF89C508DF89D2043DC30338DF837
:104398009F3030238DF89E3028AB119D27AA119CA1
:1043A8009A1A012D1E921444109478DD109B002453
:1043B80018940133109323EAE37333E70E982BAA7A
:1043C8000B9904F039FA00287EF427AF259938AF05
:1043D8002D9A2C9B38E6189D119C002DD4BFC5F151
:1043E800020301231C446725109424EAE4731695FC
:1043F80018E7022099E6259D002D189558DD0C9C9C
:10440800002C44D10A9DED0741D4189C24EAE4739A
:10441800109407E746F267610DF1AA05C6F26661D6
:1044280081FB0320DA172C46013DC2EBA00202EB08
:104438008200A3EB40001346092B00F130022270E2
:10444800EEDC0DF1AB003033A842DAB204F8012CEF
:1044580053D90DF19D01234601E013F8012B834246
:1044680001F8012FF9D148ADC4EB4503F63B94E7B9
:104478001B9800220023514606F0ECFE00287FF42A
:1044880073AE0C98C0F1010325931C4492E60C9D71
:10449800189C6B1C1C44109424EAE473C2E60A9C22
:1044A80014F0010382D1109D189325EAE573B9E64B
:1044B8000C9D35B90A9CE4075CBF012310937FF576
:1044C800B1AE0C9D0235109525EAE573AAE6149D58
:1044D80099F80130A1462D680C95149D291D0C9D55
:1044E8001491002DBEF61DAEFEF718BE0E9D0C23CE
:1044F8004FF0FF302B60FEF798BE0DF19E034CE79E
:10450800259B35E72DE9F04FC9B01C4689460B922B
:104518000C9003F031F9149400681990FEF768FDC7
:104528000C9D1C901DB1AB69002B00F01F8144F657
:104538005413C0F60103994500F0228144F6341360
:10454800C0F60103994500F0DC8644F61413C0F662
:104558000103994504BF0C9DD5F80C90B9F80C30AF
:104568009AB295040AD443F40053D9F86410A9F810
:104578000C309AB221F40051C9F86410100740F1C8
:10458800CC80D9F81030002B00F0C78002F01A0256
:104598000A2A00F0CE8044F6F40438ADC0F60104CF
:1045A80016940DF1DF040894169C38AF099544F66B
:1045B8007C7504F11006089C0023C0F601051293CF
:1045C80017953D1B1B931D931A931E9315932195C5
:1045D8002D932C932B97CDF840900B9D2B78252B62
:1045E80018BF002B00F0D0806A1C144601322378D3
:1045F800252B18BF002BF8D10B98251A0FD02C9B10
:104608002D9A013387E82100072B2A442C93D8BF21
:1046180008372D9200F3A080159929441591237825
:10462800002B00F065840023651C1A468DF88F3036
:1046380013930A932B4694F801904FF0FF340B958F
:104648000D940133A9F12001582900F23084DFE8E4
:1046580011F05B022E042E045A032E042E042E049D
:104668002E042E042E04610356032E045D006202FC
:104678002E0482028902890289028902890289023A
:104688008902890289022E042E042E042E042E0487
:104698002E042E042E042E042E049A02BB022E048D
:1046A800BB022E042E042E042E04F8022E042E041F
:1046B800F9032E042E042E042E042E0415042E04B1
:1046C8002E046D032E042E042E042E042E042E0414
:1046D8002E042E042E042E0487039B03BB02BB0268
:1046E800BB02B3039B032E042E04BA032E04CD038E
:1046F8004A02E103FF022E0406032E049D002E0445
:104708002E043003139C1491644213940A9D45F0BF
:1047180004050A9593F8009093E70C98494601F030
:1047280011FAA0B9B9F80C2002F01A020A2A7FF48B
:1047380032AFB9F90E30002BFFF62DAF0C98494671
:104748000B9A234601F098F949B0BDE8F08F4FF075
:10475800FF3049B0BDE8F08F0C982BAA109904F0EF
:1047680097FE002840F0EA8438AF55E7284602F063
:10477800EDFB44F65413C0F6010399457FF4DEAE11
:104788000C9DD5F80490E9E60B9C48E70A9D0B932D
:10479800AB0640F17C83149C0123E21D22F0070242
:1047A80002F108051495D2E900454FF0000A8DF88A
:1047B8008FA00D9A002AA2BF0A9820F080000A90C4
:1047C80054EA05010D980CBF00220122002818BFE9
:1047D80042F00102002A00F0FF83012B00F01F8540
:1047E800022B0DF1DF0240F06281DDF868C004F0B1
:1047F8000F01230943EA057328091CF801101C4618
:104808000546904654EA050002F1FF3288F8001088
:10481800EDD1099BC8EB030311930D9C119DA54293
:10482800B8BF254600240E951894BAF1000F02D09F
:104838000E9C01340E940A9D15F002050F951EBFBB
:104848000E9C02340E940A9C14F0840540F04E83AA
:10485800139C0E98C0EB040BBBF1000F40F346838A
:10486800BBF1100F44F6F40A2D99DCBFC0F6010A1B
:104878002C9A34DDC0F6010ACDF87C90CDF8808002
:104888001024D8462C9AD346DDF84090AA46169DA7
:1048980004E0A8F11008B8F1100F19DD0132103149
:1048A800072A3D607C6007F108072C922D91F0DD06
:1048B8000C9849462BAA38AF04F0EAFD002840F0CE
:1048C8002083A8F110082D99B8F1100F2C9AE5DC77
:1048D8005546DDF87C90DA46C346DDF88080013223
:1048E8000BEB0104072A2C922D9487E8000C00F3A7
:1048F800F2829DF88FA00837BAF1000F0ED02C9BDA
:104908000DF18F0201343A6001330122072B7A60DE
:104918002D94D8BF08372C9300F318840F9B6BB1E4
:104928002C9B24AA02343A6001330222072B7A60B6
:104938002D94D8BF08372C9300F31384802D00F0F2
:104948005E830D9D119BC3EB050ABAF1000F43DD91
:10495800BAF1100F2C9BDCBF9A4D0F9527DD9948B3
:1049680022461025DDF830B0109C0F9004E0AAF123
:10497800100ABAF1100F19DD01331032072B3E600F
:104988007D6007F108072C932D92F0DD58462146EB
:104998002BAA38AF04F07CFD002840F07583AAF1FB
:1049A800100A2D9ABAF1100F2C9BE5DC144601333E
:1049B8000F9D072B54442C9387E82004D8BF083751
:1049C8002D9409DD0C982BAA109904F061FD00289C
:1049D80040F0B4832D9C38AF0A9DEA0500F19A8215
:1049E8002C9B119D0133C7F80080072B2C447D6058
:1049F8002D942C9300F3918308370A9D6A0747D5B5
:104A080013980E99451A002D42DD102D44F6F40A2C
:104A18002C9BC0F6010A29DDCDF828A04FF010081C
:104A2800DDF83090DDF840B0DDF858A002E0103D28
:104A3800102D19DD01331034072BC7F800A0C7F873
:104A4800048007F108072C932D94F0DD4846594659
:104A58002BAA38AF04F01CFD002840F0D584103D87
:104A68002D9C102D2C9BE5DCDDF828A001332C446F
:104A7800072B2C932D94C7F800A07D6008DD0C98B7
:104A88002BAA109904F004FD002840F057832D9CB0
:104A9800159D0E9913988142ACBF6D182D18159568
:104AA800002C40F04383002338AF2C9395E5E308AE
:104AB800E90843EA457390460D4604F007021C4690
:104AC80002F1300354EA050108F1FF3288F800309A
:104AD800EDD10A9C4146E00700F1F784099DC8EB37
:104AE8000505119599E60A9D0B9315F0200300F032
:104AF800B381149C0023E21D22F0070202F108058D
:104B08001495D2E9004550E693F80090002A7FF406
:104B180098AD202295E593F80090581CB9F12A0F1A
:104B280000F07D87A9F13001092982BF00240346DE
:104B38000D943FF687AD002303EB830310F8019B28
:104B480001EB4303A9F130010929F5D943EAE373DD
:104B58000D93034676E50A9C44F080040A9493F882
:104B680000906EE50025A9F130012846139500EB69
:104B7800800013F8019B01EB4000A9F130010929DD
:104B8800F5D913905EE50A9D0B9345F010050A953B
:104B98000A9C8DF88F20A10640F1FD80149DEB1D25
:104BA80023F0070303F108041494D3E900231446FF
:104BB8001D46002A73F10000C0F293849DF88FA06F
:104BC8000123F6E5044901080A9C0B9325078DF893
:104BD8008F2040F11B85149DEB1D23F0070303F183
:104BE800080414941D681B955B681D931B981D99F8
:104BF800FDF7CAFA01281B9840F0808400220023A0
:104C08001D9906F031FB002840F034869DF88FA0EE
:104C1800032544F6407844F63C730E950A9DC0F689
:104C28000108C0F60103002425F080050D940A95BB
:104C380003240025B9F1470FD8BF98461194189559
:104C4800F3E50A9C44F008040A9493F80090F8E409
:104C58000A9C44F020040A9493F80090F1E4149C10
:104C680014980B93D4F80080051D00248DF88F400C
:104C7800B8F1000F00F0C6850D9800284046C0F234
:104C88009A8521460D9A02F0FDFD002800F00F8656
:104C98001495C8EB00000D9D0D94A842B8BF0546B9
:104CA800119525EAE5740D9D0E949DF88FA0189531
:104CB800BBE50A9D44F66074C0F601040B93A80690
:104CC8008DF88F201A943CD5149CE31D23F007031C
:104CD80003F108051495D3E900450A98C30740F184
:104CE8004B8254EA050100F04782302340F002006D
:104CF8008DF8903002238DF891900A9055E593F83D
:104D080000902B229DE40A9D45F001050A9593F831
:104D1800009096E4149C149D2468291D002C13947B
:104D2800FFF6F0AC149193F800908AE40A9D44F6DB
:104D38004C74C0F601040B93A8068DF88F201A94C2
:104D4800C2D40A9CE10600F1C8820A9C620640F1BE
:104D5800C48214980025043030F8044C1490BCE741
:104D6800149A0125149C0DF1B8080B9300231268BE
:104D780004349A460E9514948DF88F300D93189339
:104D880011958DF8B82056E50A9C0B93A1068DF86D
:104D98008F203FF503AF0A9DEA0600F18D820A9C39
:104DA800630640F189821498043030F9044C149059
:104DB8002246E5172B46FCE60A9D45F040050A9574
:104DC80093F800903DE493F800901946B9F16C0F00
:104DD80005BF01330A9C0A9D44F020040BBF91F8DB
:104DE800019045F010050A940A952AE40A9D0B9350
:104DF800A9068DF88F2040F11684149C2168159C13
:104E08002246E5172B46149DC1E900230435149565
:104E1800FFF7E3BB0B9344F66070149B4FF07809DF
:104E28000A9DC0F601008DF8919045F002051C68B6
:104E38000A951D1D1A903023149500258DF8903081
:104E48000223B2E40A9C0B9344F010040A940A9DCE
:104E580015F020037FF44DAE0A9C14F0100240F0C8
:104E680034820A9C14F0400300F02F8214981346F1
:104E78000025043030F8044C149096E40A9C0B93F7
:104E880044F010040A940A9DAB063FF584AC0A9CD2
:104E9800E50600F108820A9C640640F10482149831
:104EA80000250123043030F8044C14907DE40B9362
:104EB8008DF88F20B9F1000F1AD0002301259A46EA
:104EC8000E958DF8B8900DF1B8088DF88F300D93C8
:104ED80018931195AFE40C982BAA109904F0D8FAFE
:104EE800002840F02B819DF88FA038AF2D9C03E55A
:104EF8002D9BDDF8409023B10C9849462BAA04F06D
:104F0800C7FAB9F80C305B063FF521AC159849B0E3
:104F1800BDE8F08FB9F1650F40F3B8801B98002207
:104F280000231D9906F096F9002800F028812C9B93
:104F38000122179D013413447A60072B2D943D609C
:104F4800D8BF08372C9300F37A83259B129DAB4278
:104F580003DB0A9DEB077FF550AD1C9D2C9B2C4471
:104F6800199D01332D94072B2C933D601C9D7D606A
:104F7800D8BF083700F3F183129D05F1FF38B8F167
:104F8800000F7FF73AADB8F1100F2C9B40F3AC81BE
:104F9800AA4D4FF01009DDF840A00F950C9D05E0D3
:104FA800A8F11008B8F1100F40F3A08101331034B4
:104FB800072B87E840022C9307F108072D94EFDDB3
:104FC800284651462BAA38AF04F062FA002840F070
:104FD8008F832D9C2C9BE3E7002B40F0B2800A9C2A
:104FE800E1075CBF11930DF1E0087FF516AC219D38
:104FF80030230DF1DF088DF8DF3011950DE413989B
:105008000E99451A002D7FF79CAC102D2C9BDCBF08
:105018008A4A0F9222DD894822464FF0100BDDF8AC
:1050280030A0109C0F9002E0103D102D15DD0133CB
:105038001032072B87E840082C9307F108072D92B8
:10504800F2DD504621462BAA38AF04F021FAD8B930
:10505800103D2D9A102D2C9BE9DC144601330F9935
:10506800072B2C442C9387E82200D8BF08372D94AF
:105078007FF767AC0C982BAA109904F009FA00285E
:105088005CD12D9C38AF5CE4A1463AE7129D2C9B7D
:10509800012D40F3BB810121621C0B44C7F800803D
:1050A800072B79602D92D8BF08372C9300F3CC8159
:1050B800199D5C1CDDF87090072C2C943D60914480
:1050C8001C9DCDF8B4907D60D8BF083700F3C88127
:1050D8001B98002200231D9906F0BCF8002840F018
:1050E800AF800134129D072C08F1010205F1FF334E
:1050F8002C9499443A60CDF8B4907B6000F3978182
:105108000837631C1E9D1E9C072B27AA2C934C4412
:1051180087E824002D947FF76FAC0C982BAA109980
:1051280004F0B6F950B92D9C38AF66E40C982BAA58
:10513800109904F0ADF900283FF4B5ACDDF84090C3
:10514800DFE611920DF1E008FFF767BB0C982BAA78
:10515800109904F09DF90028F0D12D9C38AFFFF785
:10516800DDBB0C982BAA109904F092F90028E5D120
:105178002D9C38AFFFF7E2BB0223FFF716BB259B38
:10518800002B40F36782129D1898DDF848B08542DD
:10519800A8BF0546002DC3440CDD2C9B2C44C7F842
:1051A800008001337D60072B2D942C93D8BF0837DE
:1051B80000F30F83189925EAE575C5EB0109B9F1E4
:1051C800000F40F3B980B9F1100F2C9BDCBF1B4DC9
:1051D8000F9540F39C80194D22464FF0100A109C01
:1051E8000F950C9D05E0A9F11009B9F1100F40F3D6
:1051F8008D8001331032072B87E840042C9307F188
:1052080008072D92EFDD284621462BAA38AF04F077
:105218003FF900287FF438AF2D9A2C9BE3E7002D47
:1052280008BF0A2C80F03681219D30340DF1DF084B
:105238008DF8DF401195FFF7F0BA00BF0449010867
:10524800129D05F1FF38B8F1000F7FF75AAFB8F19A
:10525800100FDCBFA84B0F9340F31081A64D4B46AF
:105268004FF0100ADDF840900F950C9D05E0A8F16D
:105278001008B8F1100F40F3008101341033072CE7
:1052880087E840042C9407F108072D93EFDD2846A2
:1052980049462BAA38AF04F0FBF800287FF431AE5A
:1052A8002D9B2C9CE3E7149D0123043555F8044CF1
:1052B80014950025FFF779BA149D043555F8044C68
:1052C80014952246E5172B4673E4149D043555F8CA
:1052D800044C14950025FFF768BA149D043555F859
:1052E800044C14950025F8E4834D0F9501330F9D68
:1052F800072B44442C932D9487E820017FF77CAB3F
:105308000BE70C9DD5F80890FFF728B91446013330
:105318000F9D072B4C442C9387E82002D8BF0837F1
:105328002D9409DD0C982BAA109904F0B1F80028E7
:105338007FF404AF2D9C38AF189D259BA844129D7F
:10534800AB4247DB0A9DE80744D41298C8EB0B052B
:10535800C31AAB42B8BF1D46002D0CDD2C9A2C4455
:10536800C7F8008001327D60072A2D942C92D8BF9F
:10537800083700F3398225EAE575C5EB0308B8F16B
:10538800000F7FF73AABB8F1100F2C9BACDD5A4DEC
:105398004FF01009DDF840A00F950C9D04E0A8F12E
:1053A8001008B8F1100FA1DD01331034072B87E87E
:1053B80040022C9307F108072D94F0DD284651464A
:1053C8002BAA38AF04F064F8002840F091812D9C96
:1053D8002C9BE4E71C9D2C9A2C44199D01322D949A
:1053E800072A2C923D601C9D7D60D8BF0837ACDD34
:1053F8000C982BAA109904F04BF800287FF49EAE65
:10540800259B38AF2D9CA0E7D9467AE50A9DE90788
:105418003FF541AE012204F101099C18C7F800804C
:10542800072CCDF8B4902C947A607FF769AE0C986D
:105438002BAA109904F02CF800287FF47FAEDDF831
:10544800B49038AF2C9C5CE60C982BAA109904F009
:105458001FF800287FF472AE2D9A38AF2C9B27E6F0
:105468000C982BAA109904F013F800287FF466AE64
:10547800DDF8B49038AF2C9C2AE6994601340F9B8E
:10548800072CC1442C94CDF8B49087E808017FF725
:1054980037AECCE70DF1DF0B204629460A22002360
:1054A80005F0A2FFD8462046294600230BF1FF3B12
:1054B800303288F800200A2205F096FF04460D468F
:1054C80054EA0500E8D1FFF7A4B9302B3FF4A1A9AD
:1054D800099C3023904601F8013CA41A1194FFF767
:1054E8009CB94FF02D0A644265EB45058DF88FA0F5
:1054F8000123FFF75EB900BF044901081D99FCF7B5
:1055080043FE002800F004810D9C29F02005013499
:1055180004BF06240D9406D0472D04D10D9C002C01
:1055280008BF01240D941D9B0A9C002B44F4807431
:105538000F94BDBF1C464FF02D0B04F1004ADDF857
:1055480074A0A8BF4FF0000BB5F146046142614159
:10555800002940F06B81452D40F0FC810D98022117
:105568001B9A5346441C0091019425A90C9802915A
:1055780026A9039129A9049100F008FC8046044457
:1055880000231B980022514605F064FE234648B9C3
:10559800299B9C4206D930215A1C29921970299BB3
:1055A8009C42F9D8472DC8EB0303129300F077818A
:1055B800B9F1650F40F34D82B9F1660F00F0CC8167
:1055C800259D1895189C129DAC42C0F2B5810A9C85
:1055D800E00753BF4FF067094FF06709189B189D04
:1055E80049BF013325EAE573119323EAE37358BFF2
:1055F8001195BBF1000F40F043810F9C0E93CDF83D
:1056080034B00A949DF88FA0FFF70FB9149CE31DDE
:1056180023F0070303F1080514951C681B945B68C5
:105628001D93FFF7E3BA0A9CE20663D5149D159C07
:10563800043555F8043C14951C60FEF7CEBF0C9851
:105648002BAA109903F024FF00287FF477AD2D9C36
:1056580038AF7AE42C9A0121179D01340A442D941D
:10566800072A2C923D6079606BDC0837194629B906
:10567800129D1DB90A9DED077FF5BFA92C9B1C9AA9
:1056880001331C9D2244199C072B2D927D603C60A0
:10569800D8BF08372C9300F33F81C1F10009B9F155
:1056A800000F7BDDB9F1100FDCBFA24C0F945FDD5A
:1056B800A04D1024DDF840A00F950C9D04E0A9F141
:1056C8001009B9F1100F53DD01331032072B3E607A
:1056D8007C6007F108072C932D92F0DD284651468F
:1056E8002BAA38AF03F0D4FE10B92D9A2C9BE6E70D
:1056F800D14606E4149C0A9D043454F8043C15F081
:10570800400F159D149414BF1D801D60FEF765BFE2
:105718000A9D44F6487844F64473C0F60108C0F67A
:105728000103032425F080050D900E94B9F1470F6D
:10573800D8BF98460A95189011949DF88FA0FFF746
:1057480074B80C982BAA109903F0A2FE00287FF4D5
:10575800F5AC259938AF2D9C89E70C982BAA1099A0
:1057680003F096FE00287FF4E9AC2D9C38AF03E4E3
:1057780001330F9C072B4A442C9387E81002D8BFAB
:1057880008372D920ADD0C982BAA109903F080FE99
:1057980000287FF4D3AC2D9A38AF2C9B0133129D8F
:1057A800129C072B2C931444C7F800802D947D601D
:1057B8007FF722A9B1E40D94FDF71AFC14950D9D0D
:1057C8009DF88FA0189520EAE07411900E94FFF7C9
:1057D8002CB80C982BAA109903F05AFE00287FF4D5
:1057E800ADAC2D9C38AFE5E40C982BAA109903F0CA
:1057F8004FFE00287FF4A2AC259B38AF12992D9C50
:10580800CB1AB8E50D9CC24644F67478CDF834A09E
:10581800062C28BF062414951194C0F6010824EA22
:10582800E474CDF860A00E94FEF7FFBF03200D9C32
:105838005346009025A81B9A029026A8019403902D
:1058480029A804900C98079100F0A0FA472D079911
:10585800804602D10A9CE0071DD50D9C44440029CE
:105868003FF48EAE98F80030302B00F0B280259BC4
:105878001C4485E64FF02D0A8DF88FA0FFF7C8B9B4
:105888000F9D4FF02D0A00240E938DF88FA00A95D6
:105898000D94FEF7CDBF299BC8EB03031293259BFC
:1058A800DA1C11DB0D9C9C420EDB18938AE60D9CDA
:1058B800149524EAE4740E940D9C18900D9011949C
:1058C8009DF88FA0FEF7B1BFA9F10209013B25930E
:1058D800002B8DF89C90BABF5B422D222B22092BFE
:1058E8008DF89D2047DC30338DF89F3030238DF8BC
:1058F8009E3028AB129D27AA129C9A1A012D1E923F
:105908001444119440F39B80119B00241894013394
:10591800119323EAE3736CE60C982BAA109903F011
:10592800B7FD00287FF40AAC259938AF2D9A2C9B37
:10593800B3E600BF04490108189C4FF06709129D9F
:10594800002CD4BFC4F1020301231D44119525EA9C
:10595800E5734EE602206AE7259C002C18944FDD7B
:105968000D9D002D44D10A9CE50741D4189D25EAD8
:10597800E57311953DE646F267610DF1AA05C6F299
:10598800666181FB0320DA172C46013DC2EBA002B9
:1059980002EB8200A3EB40001346092B00F1300212
:1059A8002270EEDC0DF1AB003033A842DAB204F815
:1059B800012C50D90DF19D01234601E013F8012B6C
:1059C800834201F8012FF9D148ADC4EB4503F63BFA
:1059D80090E71B9800220023514605F03BFC002865
:1059E8007FF445AF0D98C0F1010325931C44C7E52A
:1059F8000D9C189D631C1D44119525EAE573F8E577
:105A08000D9C34B90A9DEC075CBF012311937FF507
:105A1800F0AD0D9B0233119323EAE373E9E5149D7E
:105A2800149C93F8019003462D68211D1491002DB4
:105A38000D95BCBF4FF0FF350D95FEF702BE0A9CD1
:105A480014F001037FF460AF119D189325EAE57304
:105A5800CFE5259B3AE70DF19E034BE730B440F2C2
:105A68000404C2F200040D46134601462A46206883
:105A780030BCFEF747BD00BF2DE9F04F8846ADF2B8
:105A88006C4D4FF48065D8F864706946B8F80EA07C
:105A98001AACB8F80CB0002619978146D8F82070CF
:105AA8002BF0020B009404940897D8F82870ADF8EE
:105AB8000CB0ADF80EA00A97069602950595FEF76C
:105AC80021FD041E07DB4846694601F0CDF9B042C6
